:020000040800F2
:100000000080002039220008D9070008DF07000817
:1000100000000000000000000000000000000000E0
:10002000000000000000000000000000E5070008DC
:100030000000000000000000EF070008F9070008BA
:1000400089220008892200088922000889220008E4
:1000500089220008892200080708000817080008FC
:1000600089220008892200088922000889220008C4
:1000700089220008892200088922000889220008B4
:1000800089220008892200088922000889220008A4
:100090008922000889220008892200088922000894
:1000A0008922000889220008892200088922000884
:0C00B0008922000889220008892200082B
:1000BC0010B5064C2378002B07D1054B002B02D032
:1000CC00044800E000BF0123237010BD1000002085
:1000DC0000000000E4220008044B10B5002B03D0F4
:1000EC000349044800E000BF10BDC04600000000FA
:1000FC0014000020E4220008002243088B4274D331
:10010C0003098B425FD3030A8B4244D3030B8B420C
:10011C0028D3030C8B420DD3FF22090212BA030C15
:10012C008B4202D31212090265D0030B8B4219D3F6
:10013C0000E0090AC30B8B4201D3CB03C01A524116
:10014C00830B8B4201D38B03C01A5241430B8B425E
:10015C0001D34B03C01A5241030B8B4201D30B0347
:10016C00C01A5241C30A8B4201D3CB02C01A52416E
:10017C00830A8B4201D38B02C01A5241430A8B4231
:10018C0001D34B02C01A5241030A8B4201D30B021A
:10019C00C01A5241CDD2C3098B4201D3CB01C01A34
:1001AC00524183098B4201D38B01C01A524143093E
:1001BC008B4201D34B01C01A524103098B4201D32C
:1001CC000B01C01A5241C3088B4201D3CB00C01A99
:1001DC00524183088B4201D38B00C01A5241430811
:1001EC008B4201D34B00C01A5241411A00D2014636
:1001FC00524110467047FFE701B5002000F006F8A9
:10020C0002BDC0460029F7D076E770477047C0465C
:10021C0080B500AF00F02EFB00F082F800F01EF964
:10022C0000F0ECF83D4B1B88802B00D15DE00ADC24
:10023C00102B3AD002DC082B27D0F3E7202B2CD044
:10024C00402B5AD0EEE78022D200934215D0802268
:10025C00D200934208DC80225200934235D0802297
:10026C009200934239D0DDE780221201934224D0D0
:10027C0080225201934248D0D4E79023DB0501221F
:10028C002021180000F0B2FD47E09023DB0501228D
:10029C002021180000F0AAFD3FE09023DB0501228D
:1002AC002021180000F0A2FD37E09023DB0501228D
:1002BC002021180000F09AFD2FE09023DB0501228D
:1002CC002021180000F092FD27E09023DB0501228D
:1002DC002021180000F08AFD1FE09023DB0501228D
:1002EC002021180000F082FD17E09023DB0501228D
:1002FC002021180000F07AFD0FE09023DB0501228D
:10030C002021180000F072FD07E09023DB0501228C
:10031C002021180000F06AFDC04683E70000002091
:10032C0080B598B000AF2C23FB18180034231A00AA
:10033C00002101F0C9FF1C23FB18180010231A0020
:10034C00002101F0C1FF3B0018001C231A00002102
:10035C0001F0BAFF2C23FB1802221A602C23FB1885
:10036C000122DA602C23FB1810221A612C23FB18B3
:10037C0002225A622C23FB18802212029A622C232E
:10038C00FB18A0229203DA622C23FB1801221A63B9
:10039C002C23FB18180000F063FD031E01D000F0A5
:1003AC009BF91C23FB1807221A601C23FB18022242
:1003BC005A601C23FB1800229A601C23FB18002295
:1003CC00DA601C23FB180121180001F0CDF8031E84
:1003DC0001D000F081F93B0002221A603B000022A0
:1003EC00DA603B00180001F037FA031E01D000F070
:1003FC0073F9C046BD4618B080BD000080B500AF93
:10040C00144B154A1A60134BE12252025A60114BDD
:10041C0000229A600F4B0022DA600E4B00221A6108
:10042C000C4B0C225A610B4B00229A61094B002297
:10043C00DA61084B00221A62064B00225A62054B05
:10044C00180001F007FB031E01D000F045F9C0466F
:10045C00BD4680BD2C0000200044004080B58AB011
:10046C0000AF1423FB18180014231A00002101F00C
:10047C002BFF8A4B894A5269802109030A435A612E
:10048C00864B5A6980231B0313403B613B69834BAA
:10049C00824A52698021C9030A435A617F4B5A69C7
:1004AC008023DB031340FB60FB687C4B7B4A526967
:1004BC00802189020A435A61784B5A6980239B0236
:1004CC001340BB60BB68754B744A52698021C902EA
:1004DC000A435A61714B5A698023DB0213407B60DB
:1004EC007B686F496F4B0022180000F07FFC6E4B4D
:1004FC0000220321180000F079FC6C499023DB05E5
:10050C000022180000F072FC694B002280211800B8
:10051C0000F06CFC1423FB18802292011A60142347
:10052C00FB18842292035A601423FB1800229A6051
:10053C001423FB185B4A1900100000F0DFFA142397
:10054C00FB18574A1A601423FB1801225A60142313
:10055C00FB1800229A601423FB180022DA60142383
:10056C00FB18504A1900100000F0C8FA1423FB18AD
:10057C0003221A601423FB1801225A601423FB185F
:10058C0000229A601423FB180022DA601423FB1853
:10059C00454A1900100000F0B1FA1423FB18434A25
:1005AC001A601423FB1801225A601423FB18002232
:1005BC009A601423FB180022DA601423FA18902393
:1005CC00DB051100180000F099FA1423FB18394AC6
:1005DC001A601423FB18882252035A601423FB1848
:1005EC0002229A601423FB18314A1900100000F003
:1005FC0085FA1423FB1880221A601423FB18882216
:10060C0052035A601423FB1802229A601423FB181D
:10061C00244A1900100000F071FA1423FB18B822B8
:10062C0052011A601423FB18882252035A601423B7
:10063C00FB1802229A601423FA189023DB05110090
:10064C00180000F05BFA1423FB1880221A601423A4
:10065C00FB1801225A601423FB1800229A60142301
:10066C00FB180022DA601423FB18114A1900100041
:10067C0000F044FA00220021062000F00BFA0620BC
:10068C0000F01EFA00220021072000F003FA0720D8
:10069C0000F016FAC046BD460AB080BD00100240FC
:1006AC0004C000000008004800140048208000002E
:1006BC00000400487808000080B582B000AF02004A
:1006CC00BB1D1A80034BBA1D12881A80C046BD464A
:1006DC0002B080BD0000002080B500AF72B6FEE70E
:1006EC0080B582B000AF0F4B0E4A926901210A43CC
:1006FC009A610C4B9B69012213407B607B68094B10
:10070C00084AD269802149050A43DA61054BDA6946
:10071C0080235B0513403B603B68C046BD4602B07E
:10072C0080BDC0460010024080B58AB000AF786032
:10073C001423FB18180014231A00002101F0C4FD27
:10074C007B681B681F4A934237D11F4B1E4AD269E4
:10075C00802189020A43DA611B4BDA6980239B02F0
:10076C0013403B613B69184B174A5269802189023F
:10077C000A435A61144B5A6980239B021340FB6055
:10078C00FB681423FB180C221A601423FB1802229A
:10079C005A601423FB1800229A601423FB180022C1
:1007AC00DA601423FB1801221A611423FA1890231F
:1007BC00DB051100180000F0A1F9C046BD460AB0D7
:1007CC0080BDC046004400400010024080B500AF20
:1007DC00FEE780B500AFFEE780B500AFC046BD4672
:1007EC0080BD80B500AFC046BD4680BD80B500AFB2
:1007FC0000F088F8C046BD4680BD80B500AF08202B
:10080C0000F012FBC046BD4680BD80B500AF102085
:10081C0000F00AFB202000F007FB402000F004FB56
:10082C00802000F001FB80235B00180000F0FCFA34
:10083C0080239B00180000F0F7FA8023DB001800DF
:10084C0000F0F2FA80231B01180000F0EDFA80236F
:10085C005B01180000F0E8FA80239B01180000F0FF
:10086C00E3FAC046BD4680BD80B500AFC046BD466C
:10087C0080BD000080B500AF074B074A12681021FD
:10088C000A431A60002000F009F8FFF729FF002343
:10089C001800BD4680BDC0460020024090B583B014
:1008AC0000AF7860144B1C68144B1B781900FA23AA
:1008BC009800FFF721FC030019002000FFF71CFC37
:1008CC000300180000F00CF9031E01D001230FE007
:1008DC007B68032B0BD8796801235B42002218003C
:1008EC0000F0D8F8064B7A681A60002300E0012368
:1008FC001800BD4603B090BD040000200C00002081
:10090C000800002080B500AF054B1B781A00054B82
:10091C001B68D218034B1A60C046BD4680BDC0464A
:10092C000C000020B000002080B500AF024B1B680B
:10093C001800BD4680BDC046B000002080B582B016
:10094C0000AF0200FB1D1A70FB1D1B787F2B09D812
:10095C00064BFA1D127811001F220A40012191400A
:10096C000A001A60C046BD4602B080BD00E100E03E
:10097C00B0B582B000AF02003960FB1D1A70FB1DD0
:10098C001B787F2B28D82F4CFB1D1B785BB29B0848
:10099C002C49FA1D127852B29208C0329200525869
:1009AC00F91D0978080003210140C900FF20884087
:1009BC000100C94311403A689201FF201040FA1D12
:1009CC001278150003222A40D200904002000A43FC
:1009DC00C0339B001A5131E01B4CFB1D1B781A00D5
:1009EC000F231340083B9908174AFB1D1B7818006E
:1009FC000F230340083B9B0806339B00D31804339A
:100A0C001B68FA1D1278100003220240D200FF204E
:100A1C0090400200D2431A403B689B01FF201840D3
:100A2C00FB1D1B781D0003232B40DB0098400300AB
:100A3C001A438B1D9B00E31804331A60C046BD4655
:100A4C0002B0B0BD00E100E000ED00E080B582B086
:100A5C0000AF78607B68013B0C4A934201D90123BB
:100A6C0010E00B4B7A68013A5A6001235B42032178
:100A7C001800FFF77DFF064B00229A60044B0722FB
:100A8C001A6000231800BD4602B080BDFFFFFF00B6
:100A9C0010E000E080B584B000AFB9607A600F233D
:100AAC00FB18021C1A70BA680F23FB181B785BB278
:100ABC0011001800FFF75CFFC046BD4604B080BDB6
:100ACC0080B582B000AF0200FB1D1A70FB1D1B78B5
:100ADC005BB21800FFF732FFC046BD4602B080BDC6
:100AEC0080B582B000AF78607B681800FFF7AEFF6E
:100AFC0003001800BD4602B080BD000080B586B072
:100B0C0000AF7860396000237B6155E13B681B685E
:100B1C0001217A6991400A001340FB60FB68002BAD
:100B2C0000D146E13B685B6803221340012B05D0E2
:100B3C003B685B6803221340022B30D17B689B68B7
:100B4C003B617B695B0003229A401300DA433B69EB
:100B5C0013403B613B68DA687B695B009A40130089
:100B6C003A6913433B617B683A699A607B685B68BE
:100B7C003B6101227B699A401300DA433B691340C5
:100B8C003B613B685B681B0901221A407B699A40F8
:100B9C0013003A6913433B617B683A695A603B68BE
:100BAC005B6803221340032B17D07B68DB683B6127
:100BBC007B695B0003229A401300DA433B691340C4
:100BCC003B613B689A687B695B009A4013003A6909
:100BDC0013433B617B683A69DA603B685B680322CC
:100BEC001340022B23D17B69DA087B680832920010
:100BFC00D3583B617B69072213409B000F229A401C
:100C0C001300DA433B6913403B613B681A697B690B
:100C1C0007210B409B009A4013003A6913433B6138
:100C2C007B69DA087B68083292003969D1507B689D
:100C3C001B683B617B695B0003229A401300DA431B
:100C4C003B6913403B613B685B6803221A407B693C
:100C5C005B009A4013003A6913433B617B683A6925
:100C6C001A603B685A68C0239B02134000D1A0E075
:100C7C00574B574A926901210A439A61544B9B691D
:100C8C0001221340BB60BB68524A7B699B0802334C
:100C9C009B009B583B617B69032213409B000F22F6
:100CAC009A401300DA433B6913403B617A68902306
:100CBC00DB059A4219D07B68474A934213D07B6874
:100CCC00464A93420DD07B68454A934207D07B68D5
:100CDC00444A934201D1042308E0052306E0032390
:100CEC0004E0022302E0012300E000237A690321DF
:100CFC000A40920093403A6913433B6135497B6942
:100D0C009B0802339B003A695A50374B1B683B6176
:100D1C00FB68DA433B6913403B613B685A688023AC
:100D2C005B02134003D03A69FB6813433B612E4BC3
:100D3C003A691A602C4B5B683B61FB68DA433B6990
:100D4C0013403B613B685A6880239B02134003D0DD
:100D5C003A69FB6813433B61234B3A695A60224B57
:100D6C009B683B61FB68DA433B6913403B613B6822
:100D7C005A6880235B03134003D03A69FB68134322
:100D8C003B61194B3A699A60174BDB683B61FB6816
:100D9C00DA433B6913403B613B685A6880239B03F1
:100DAC00134003D03A69FB6813433B610E4B3A691D
:100DBC00DA607B6901337B613B681A687B69DA40D6
:100DCC00131E00D0A2E6C046BD4606B080BDC0468C
:100DDC0000100240000001400004004800080048D8
:100DEC00000C0048001000480004014080B582B09F
:100DFC0000AF786008001100BB1C021C1A807B1C21
:100E0C000A1C1A707B1C1B78002B04D0BB1C1A8884
:100E1C007B689A6103E0BB1C1A887B689A62C046A7
:100E2C00BD4602B080BD000080B582B000AF0200AC
:100E3C00BB1D1A80094B5B69BA1D1288134008D080
:100E4C00064BBA1D12885A61BB1D1B881800FFF790
:100E5C0033FCC046BD4602B080BDC0460004014014
:100E6C0080B588B000AF78607B68002B02D101237D
:100E7C0000F074FB7B681B680122134000D18EE0EC
:100E8C00C54B5B680C221340042B0ED0C24B5B6825
:100E9C000C221340082B17D1BF4B5A68C0235B029E
:100EAC001A4080235B029A420ED1BB4B1A688023F6
:100EBC009B02134000D171E07B685B68002B00D073
:100ECC006CE0012300F04AFB7B685B68012B07D1C7
:100EDC00B14BB14A1268802149020A431A602FE0D3
:100EEC007B685B68002B0CD1AB4BAB4A1268AB49EF
:100EFC000A401A60A84BA84A1268A9490A401A600D
:100F0C001EE07B685B68052B0ED1A34BA24A1268CE
:100F1C008021C9020A431A609F4B9F4A12688021A4
:100F2C0049020A431A600BE09B4B9B4A12689B498F
:100F3C000A401A60984B984A126899490A401A60FC
:100F4C007B685B68002B14D0FFF7EEFC0300BB61E1
:100F5C0008E0FFF7E9FC0200BB69D31A642B01D946
:100F6C000323FBE28C4B1A6880239B021340F0D0C6
:100F7C0015E0FFF7D9FC0300BB6108E0FFF7D4FCD8
:100F8C000200BB69D31A642B01D90323E6E2824B1E
:100F9C001A6880239B021340F0D100E0C0467B68A6
:100FAC001B680222134000D16CE07B4B5B680C2267
:100FBC0013400ED0784B5B680C221340082B1FD1CA
:100FCC00754B5A68C0235B021A4080231B029A425D
:100FDC0016D1714B1B680222134005D07B68DB686D
:100FEC00012B01D00123B9E26B4A6B4B1B68F82132
:100FFC008B4319007B681B69DB000B43136041E0DA
:10100C007B68DB68002B24D0634B634A1268012198
:10101C000A431A60FFF788FC0300BB6108E0FFF786
:10102C0083FC0200BB69D31A022B01D9032395E27E
:10103C00594B1B6802221340F1D0574A564B1B6880
:10104C00F8218B4319007B681B69DB000B43136091
:10105C0018E0514B504A126801218A431A60FFF77D
:10106C0063FC0300BB6108E0FFF75EFC0200BB6998
:10107C00D31A022B01D9032370E2474B1B680222BF
:10108C001340F1D17B681B680822134036D07B6873
:10109C00DB69002B19D0404B3F4A526A01210A43AD
:1010AC005A62FFF741FC0300BB6108E0FFF73CFC10
:1010BC000200BB69D31A022B01D903234EE2364B33
:1010CC005B6A02221340F1D018E0334B324A526A69
:1010DC0001218A435A62FFF727FC0300BB6108E039
:1010EC00FFF722FC0200BB69D31A022B01D90323A0
:1010FC0034E2294B5B6A02221340F1D17B681B68F6
:10110C000422134000D1B5E01F23FB1800221A70F3
:10111C00214BDA6980235B05134011D11E4B1E4A0B
:10112C00D269802149050A43DA611B4BDA698023B5
:10113C005B051340FB60FB681F23FB1801221A7030
:10114C00184B1A6880235B0013401AD1154B154AB3
:10115C001268802149000A431A60FFF7E5FB03007F
:10116C00BB6108E0FFF7E0FB0200BB69D31A642BFC
:10117C0001D90323F2E10B4B1A6880235B00134067
:10118C00F0D07B689B68012B0ED1034B024A126A8C
:10119C0001210A431A6235E000100240FFFFFEFFF6
:1011AC00FFFFFBFF007000407B689B68002B0CD19D
:1011BC00C94BC94A126A01218A431A62C64BC64AF4
:1011CC00126A04218A431A621CE07B689B68052B17
:1011DC000CD1C14BC04A126A04210A431A62BE4B9D
:1011EC00BD4A126A01210A431A620BE0BA4BBA4A91
:1011FC00126A01218A431A62B74BB74A126A042158
:10120C008A431A627B689B68002B14D0FFF78CFB17
:10121C000300BB6109E0FFF787FB0200BB69D31A2F
:10122C00AE4A934201D9032398E1AB4B1B6A0222CD
:10123C001340F0D013E0FFF777FB0300BB6109E02C
:10124C00FFF772FB0200BB69D31AA44A934201D97F
:10125C00032383E1A04B1B6A02221340F0D11F230E
:10126C00FB181B78012B05D19B4B9B4AD2699C49DF
:10127C000A40DA617B681B681022134063D07B68DC
:10128C005B69012B2AD1944B934A526B04210A437C
:10129C005A63914B904A526B01210A435A63FFF7F0
:1012AC0043FB0300BB6108E0FFF73EFB0200BB6998
:1012BC00D31A022B01D9032350E1874B5B6B02221B
:1012CC001340F1D0844A844B5B6BF8218B4319009B
:1012DC007B689B69DB000B43536334E07B685B6981
:1012EC00053311D17C4B7C4A526B04218A435A63DF
:1012FC00794A794B5B6BF8218B4319007B689B69AE
:10130C00DB000B4353631EE0734B734A526B042197
:10131C000A435A63704B704A526B01218A435A63D9
:10132C00FFF702FB0300BB6108E0FFF7FDFA0200C8
:10133C00BB69D31A022B01D903230FE1664B5B6BFC
:10134C0002221340F1D17B681B68202213405CD031
:10135C00614B5B680C2213400C2B0ED05E4B5B6810
:10136C000C221340082B14D15B4B5A68C0235B0230
:10137C001A40C0235B029A420BD1574B5A6B802305
:10138C005B02134040D07B681B6A012B3CD00123CD
:10139C00E4E07B681B6A002B1BD04F4B4E4A526B10
:1013AC00802149020A435A63FFF7BEFA0300BB616E
:1013BC0008E0FFF7B9FA0200BB69D31A022B01D976
:1013CC000323CBE0444B5A6B80235B021340F0D0D9
:1013DC001BE0414B404A526B42490A405A63FFF7AB
:1013EC00A3FA0300BB6108E0FFF79EFA0200BB6999
:1013FC00D31A022B01D90323B0E0374B5A6B80234D
:10140C005B021340F0D100E0C0467B685B6A002BA6
:10141C0000D1A2E0304B5B680C221340082B00D1AA
:10142C0076E07B685B6A022B4BD12B4B2A4A126805
:10143C002D490A401A60FFF777FA0300BB6108E0F8
:10144C00FFF772FA0200BB69D31A022B01D90323EE
:10145C0084E0214B1A6880239B041340F0D11E4A70
:10146C001D4BDB6A0F218B4319007B681B6B0B43F5
:10147C00D362194A184B5B681C4919407B68D86ABF
:10148C007B689B6A03430B435360134B124A1268ED
:10149C00802149040A431A60FFF746FA0300BB6136
:1014AC0008E0FFF741FA0200BB69D31A022B01D9FD
:1014BC00032353E0084B1A6880239B041340F0D09D
:1014CC004BE0054B044A126807490A401A60FFF7C3
:1014DC002BFA0300BB6114E00010024088130000DB
:1014EC00FFFFFFEFFFFFFEFFFFFFFFFEFF7FC2FFCF
:1014FC00FFF71AFA0200BB69D31A022B01D9032396
:10150C002CE0184B1A6880239B041340F0D124E084
:10151C007B685B6A012B01D101231FE0114B5B68D7
:10152C007B61104BDB6A3B617A69C0235B021A401A
:10153C007B689B6A9A420ED13B690F221A407B68EA
:10154C001B6B9A4207D17A69F0239B031A407B6884
:10155C00DB6A9A4201D0012300E000231800BD464B
:10156C0008B080BD0010024080B584B000AF786038
:10157C0039607B68002B01D10123BEE0614B1B68F5
:10158C0001221A403B689A4211D25E4B5D4A1268A6
:10159C0001218A4311003A680A431A60594B1B68AF
:1015AC0001221A403B689A4201D00123A5E07B68D6
:1015BC001B680222134015D07B681B680422134061
:1015CC0006D0514B504A5268E021C9000A435A6078
:1015DC004D4A4D4B5B68F0218B4319007B689B682F
:1015EC000B4353607B681B68012213404CD07B6813
:1015FC005B68012B07D1444B1A6880239B02134074
:10160C0020D1012379E07B685B68022B07D13E4B2C
:10161C001A6880239B04134014D101236DE07B686E
:10162C005B68032B07D1384B5A6B80235B0213404A
:10163C0008D1012361E0344B1B680222134001D115
:10164C0001235AE0304A304B5B6803218B4319006D
:10165C007B685B680B435360FFF766F90300FB6024
:10166C0009E0FFF761F90200FB68D31A274A93429D
:10167C0001D9032341E0244B5B680C221A407B68A0
:10168C005B689B009A42ECD11E4B1B6801221A40EE
:10169C003B689A4211D91B4B1A4A126801218A43A2
:1016AC0011003A680A431A60164B1B6801221A4053
:1016BC003B689A4201D001231FE07B681B6804221F
:1016CC00134008D0104A104B5B68114919407B68D5
:1016DC00DB680B43536000F021F801000A4B5B6898
:1016EC001B090F2213400B4AD35C0A00DA400A4B49
:1016FC001A600020FFF7D2F800231800BD4604B092
:10170C0080BDC0460020024000100240881300003B
:10171C00FFF8FFFF1C2300080400002090B58FB0D9
:10172C0000AF1423FB18374A13CA13C312681A608C
:10173C003B1D354A13CA13C312681A600023FB629F
:10174C000023BB6200237B6300237B6200233B638B
:10175C002E4B5B68FB62FB6A0C221340082B06D0F5
:10176C000C2B43D0042B44D1294B3B6344E0FB6A44
:10177C009B0C0F2213401422BA18D35C7B62234BB0
:10178C00DB6A0F2213403A1DD35CBB62FA6AC0239A
:10179C005B021A4080235B029A4209D1B96A1C4849
:1017AC00FEF7AAFC03001A007B6A53437B631AE022
:1017BC00FA6AC0235B021A40C0235B029A4209D129
:1017CC00B96A1448FEF798FC03001A007B6A53436D
:1017DC007B6308E0B96A0E48FEF78EFC03001A0022
:1017EC007B6A53437B637B6B3B6305E0094B3B6339
:1017FC0002E0074B3B63C0463B6B1800BD460FB085
:10180C0090BDC046FC2200080C23000800100240CA
:10181C0000127A00006CDC0280B500AF024B1B6832
:10182C001800BD4680BDC0460400002080B500AF46
:10183C00FFF7F2FF0100064B5B681B0A07221340FF
:10184C00044AD35CD9400B001800BD4680BDC0468D
:10185C00001002402C23000880B586B000AF7860E1
:10186C0000233B610023FB607B681A6880235B02CA
:10187C00134000D18EE01723FB1800221A706D4B19
:10188C00DA6980235B05134011D16A4B694AD2692E
:10189C00802149050A43DA61664BDA6980235B05CE
:1018AC001340BB60BB681723FB1801221A70624BF4
:1018BC001A6880235B0013401AD15F4B5E4A126892
:1018CC00802149000A431A60FFF72EF803003B61A0
:1018DC0008E0FFF729F802003B69D31A642B01D901
:1018EC000323A3E0544B1A6880235B001340F0D011
:1018FC00504B1A6AC0239B001340FB60FB68002B03
:10190C0034D07B685A68C0239B001A40FB689A420B
:10191C002CD0484B1B6A494A1340FB60454B454A47
:10192C00126A802149020A431A62424B414A126AE6
:10193C0043490A401A623F4BFA681A62FB6801225B
:10194C00134013D0FEF7F0FF03003B6109E0FEF7F4
:10195C00EBFF02003B69D31A3A4A934201D90323A5
:10196C0064E0344B1B6A02221340F0D0314A314BF5
:10197C001B6A324919407B685B680B43136217235F
:10198C00FB181B78012B05D12A4B2A4AD2692E4908
:10199C000A40DA617B681B680122134009D0254A92
:1019AC00244B1B6B03218B4319007B689B680B43F7
:1019BC0013637B681B680222134008D01D4A1D4B21
:1019CC001B6B224919407B68DB680B4313637B68F4
:1019DC001A688023DB02134008D0164A154B1B6B88
:1019EC001B4919407B681B690B4313637B681B689D
:1019FC002022134009D00F4A0E4B1B6B10218B4336
:101A0C0019007B685B690B4313637B681A6880233E
:101A1C00DB00134009D0074A064B1B6B40218B435C
:101A2C0019007B689B690B43136300231800BD46A8
:101A3C0006B080BD0010024000700040FFFCFFFFAC
:101A4C00FFFFFEFF88130000FFFFFFEFFFFFFCFF0F
:101A5C00FFFFF3FF80B582B000AF78607B68002B8E
:101A6C0001D1012344E07B689B6F002B07D17B687D
:101A7C007422002199547B681800FEF755FE7B6890
:101A8C0024229A677B681B687A68126812680121A5
:101A9C008A431A607B68180000F030F80300012BB1
:101AAC0001D1012324E07B685B6A002B03D07B68A7
:101ABC00180000F009FA7B681B687A681268526893
:101ACC000D490A405A607B681B687A6812689268F4
:101ADC002A218A439A607B681B687A6812681268AC
:101AEC0001210A431A607B68180000F099FA030080
:101AFC001800BD4602B080BDFFB7FFFF80B588B0AF
:101B0C0000AF78601E23FB1800221A707B689A685D
:101B1C007B681B691A437B685B691A437B68DB69CA
:101B2C0013437B617B681B687A6812681268BC4936
:101B3C0011407A690A431A607B681B687A681268DC
:101B4C005268B84911407A68D2680A435A607B6877
:101B5C009B697B617B681B6A7A6913437B617B6839
:101B6C001B687A6812689268AF4911407A690A4317
:101B7C009A607B681B68AD4A934225D1AC4B1B6BBA
:101B8C0003221340012B0FD004D3022B11D0032BB3
:101B9C0005D013E01F23FB1800221A70BAE01F2394
:101BAC00FB1802221A70B5E01F23FB1804221A70CE
:101BBC00B0E01F23FB1808221A70ABE01F23FB18A0
:101BCC0010221A70C046A5E07B681B68994A9342A4
:101BDC0032D1974B1A6BC0239B02134080225202C6
:101BEC00934219D080225202934202D8002B09D082
:101BFC001CE080229202934213D0C02292029342A4
:101C0C0005D013E01F23FB1800221A7082E01F235B
:101C1C00FB1802221A707DE01F23FB1804221A7095
:101C2C0078E01F23FB1808221A7073E01F23FB189F
:101C3C0010221A70C0466DE07B681B687E4A934286
:101C4C0032D17B4B1A6BC0231B0313408022D20270
:101C5C00934219D08022D202934202D8002B09D091
:101C6C001CE080221203934213D0C0221203934231
:101C7C0005D013E01F23FB1800221A704AE01F2323
:101C8C00FB1802221A7045E01F23FB1804221A705D
:101C9C0040E01F23FB1808221A703BE01F23FB189F
:101CAC0010221A70C04635E07B681B68634A934269
:101CBC0004D11F23FB1800221A702BE07B681B68D1
:101CCC005F4A934204D11F23FB1800221A7021E0B3
:101CDC007B681B685B4A934204D11F23FB180022CC
:101CEC001A7017E07B681B68574A934204D11F2374
:101CFC00FB1800221A700DE07B681B68534A934254
:101D0C0004D11F23FB1800221A7003E01F23FB18B9
:101D1C0010221A707B68DA6980231B029A425FD109
:101D2C001F23FB181B78022B0DD002DC002B05D0D7
:101D3C0015E0042B0AD0082B0DD010E0FFF776FD30
:101D4C000300BB6112E0424BBB610FE0FFF7E6FC06
:101D5C000300BB610AE080231B02BB6106E0002389
:101D6C00BB611E23FB1801221A70C046BB69002BF5
:101D7C0000D199E0BB695A007B685B685B08D2189C
:101D8C007B685B6819001000FEF7B6F903009BB284
:101D9C003B613B690F2B1ED93B692E4A93421AD8E3
:101DAC003B699AB20E23FB180F218A431A803B69B8
:101DBC005B089BB20722134099B20E23FB180E222C
:101DCC00BA1812880A431A807B681B680E22BA184C
:101DDC001288DA6068E01E23FB1801221A7063E097
:101DEC001F23FB181B78022B0DD002DC002B05D017
:101DFC0032E0042B0AD0082B0DD02DE0FFF716FD96
:101E0C000300BB612FE0124BBB612CE0FFF786FC9B
:101E1C000300BB6127E080231B02BB6123E0C046AB
:101E2C00F369FFEFFFCFFFFFFFF4FFFF0038014026
:101E3C00001002400044004000480040004C0040AC
:101E4C00005000400014014000180140001C0140EB
:101E5C0000127A00FFFF00000023BB611E23FB1859
:101E6C0001221A70C046BB69002B1DD07B685B68D1
:101E7C005A08BB69D2187B685B6819001000FEF722
:101E8C003BF903009BB23B613B690F2B08D93B69C3
:101E9C000C4A934204D87B681B683A69DA6003E009
:101EAC001E23FB1801221A707B6800225A667B687D
:101EBC0000229A661E23FB181B781800BD4608B03A
:101ECC0080BDC046FFFF000080B582B000AF7860D7
:101EDC007B685B6A012213400AD07B681B687A68B6
:101EEC0012685268454911407A68926A0A435A60EE
:101EFC007B685B6A022213400AD07B681B687A6895
:101F0C00126852683E4911407A68D26A0A435A6094
:101F1C007B685B6A042213400AD07B681B687A6872
:101F2C0012685268374911407A68126B0A435A603A
:101F3C007B685B6A082213400AD07B681B687A684E
:101F4C0012685268304911407A68526B0A435A60E1
:101F5C007B685B6A102213400AD07B681B687A6826
:101F6C0012689268294911407A68926B0A439A6008
:101F7C007B685B6A202213400AD07B681B687A68F6
:101F8C0012689268224911407A68D26B0A439A60AF
:101F9C007B685B6A402213401BD07B681B687A68A5
:101FAC00126852681B4911407A68126C0A435A60D5
:101FBC007B681A6C80235B039A420AD17B681B688E
:101FCC007A6812685268144911407A68526C0A4354
:101FDC005A607B685B6A802213400AD07B681B685E
:101FEC007A68126852680D4911407A68926C0A43FB
:101FFC005A60C046BD4602B080BDC046FFFFFDFF23
:10200C00FFFFFEFFFFFFFBFFFF7FFFFFFFEFFFFF69
:10201C00FFDFFFFFFFFFEFFFFFFF9FFFFFFFF7FF5C
:10202C0080B586B002AF78607B6880220021995021
:10203C00FEF77AFC0300FB607B681B681B680822B8
:10204C001340082B0DD1FA68802399037868184B3C
:10205C0000931300002200F02DF8031E01D003237F
:10206C0022E07B681B681B6804221340042B0DD1F3
:10207C00FA688023D90378680D4B00931300002273
:10208C0000F018F8031E01D003230DE07B6820221A
:10209C009A677B682022DA677B6800221A667B6865
:1020AC0074220021995400231800BD4604B080BD51
:1020BC00FFFFFF0180B594B000AFF860B9603B60E2
:1020CC00FB1D1A709BE0BB6D013300D197E0FEF74E
:1020DC002BFC02003B68D21ABB6D9A4202D8BB6D36
:1020EC00002B39D1EFF31083BB62BB6A7B640123F5
:1020FC00FB62FB6A83F31088FB681B68FA68126842
:10210C00126849490A401A607B6C3B633B6B83F352
:10211C001088EFF310837B637B6B3B640123BB6301
:10212C00BB6B83F31088FB681B68FA6812689268B3
:10213C0001218A439A603B6CFB63FB6B83F3108831
:10214C00FB6820229A67FB682022DA67FB687422FE
:10215C0000219954032363E0FB681B681B6804226D
:10216C0013404CD0FB681B68DA6980231B011A40B2
:10217C0080231B019A4242D1FB681B68802212010A
:10218C001A62EFF310833B613B69FB6401237B61B3
:10219C007B6983F31088FB681B68FA681268126805
:1021AC0021490A401A60FB6CBB61BB6983F3108840
:1021BC00EFF31083FB61FB69BB6401233B623B6A59
:1021CC0083F31088FB681B68FA6812689268012117
:1021DC008A439A60BB6C7B627B6A83F31088FB68D2
:1021EC0020229A67FB682022DA67FB688022202174
:1021FC009950FB68742200219954032310E0FB686A
:10220C001B68DB69BA681A40BB68D31A5A4253413F
:10221C00DBB21A00FB1D1B789A4200D153E7002356
:10222C001800BD4614B080BD5FFEFFFF0D4885460B
:10223C000D480E490E4A002302E0D458C450043312
:10224C00C4188C42F9D30B4A0B4C002301E01360E9
:10225C000432A242FBD3FEF707FB00F011F8FDF7A6
:10226C00D7FFFEE7008000200000002010000020B7
:10227C003C23000810000020B4000020FEE7000002
:10228C0070B500260C4D0D4C641BA410A64209D150
:10229C00002600F021F80A4D0A4C641BA410A6423B
:1022AC0005D170BDB300EB5898470136EEE7B3008B
:1022BC00EB5898470136F2E7342300083423000822
:1022CC00342300083823000803008218934200D1FD
:1022DC00704719700133F9E7F8B5C046F8BC08BC73
:1022EC009E467047F8B5C046F8BC08BC9E46704781
:1022FC0002030405060708090A0B0C0D0E0F10103B
:10230C000102030405060708090A0B0C0D0E0F1039
:10231C000000000000000000010203040607080989
:08232C0000000000010203049F
:04233400E5000008B8
:04233800BD000008DC
:10233C00FFFF000000127A00040000000100000002
:040000050800223994
:00000001FF
